{
  "contractName": "Counter",
  "abi": [
    {
      "constant": true,
      "inputs": [],
      "name": "getValue",
      "outputs": [
        {
          "name": "",
          "type": "uint256"
        }
      ],
      "payable": false,
      "stateMutability": "view",
      "type": "function"
    },
    {
      "constant": false,
      "inputs": [],
      "name": "plus",
      "outputs": [],
      "payable": false,
      "stateMutability": "nonpayable",
      "type": "function"
    },
    {
      "constant": false,
      "inputs": [],
      "name": "minus",
      "outputs": [],
      "payable": false,
      "stateMutability": "nonpayable",
      "type": "function"
    }
  ],
  "bytecode": "0x608060405234801561001057600080fd5b5060be8061001f6000396000f3fe6080604052348015600f57600080fd5b5060043610603c5760003560e01c806314434fa514604157806318b0c3fd14604957806320965255146051575b600080fd5b6047606d565b005b604f607b565b005b60576089565b6040518082815260200191505060405180910390f35b600160005403600081905550565b600160005401600081905550565b6000805490509056fea165627a7a72305820250e5be4f9033bc1ebabd1551e36243bc898824aa8964f86bd2d9c4590533ca70029",
  "source": "pragma solidity ^0.5.6;\n\ncontract Counter {\n\n    uint256 private _value;\n\n    function getValue() external view returns (uint256) {\n        return _value;\n    }\n\n    function plus() public {\n        _value = _value + 1;\n    }\n\n    function minus() public {\n        _value = _value - 1;\n    }\n\n}",
  "sourcePath": "/Users/jobyungjun/Desktop/workspace/typeScript/ex2/contracts/Counter.sol",
  "compiler": {
    "name": "solc",
    "version": "0.5.6+commit.b259423e.Emscripten.clang"
  },
  "schemaVersion": "3.4.5",
  "updatedAt": "2022-02-21T15:52:32.416Z",
  "devdoc": {
    "methods": {}
  },
  "userdoc": {
    "methods": {}
  }
}